{
  "contractName": "ButtonReceiver",
  "abi": [
    {
      "inputs": [],
      "stateMutability": "nonpayable",
      "type": "constructor"
    },
    {
      "stateMutability": "payable",
      "type": "receive"
    },
    {
      "inputs": [
        {
          "internalType": "address",
          "name": "_addr",
          "type": "address"
        }
      ],
      "name": "isWhiteListed",
      "outputs": [
        {
          "internalType": "bool",
          "name": "",
          "type": "bool"
        }
      ],
      "stateMutability": "view",
      "type": "function"
    }
  ],
  "bytecode": "0x608060405234801561001057600080fd5b50336000806101000a81548173ffffffffffffffffffffffffffffffffffffffff021916908373ffffffffffffffffffffffffffffffffffffffff16021790555061045a806100606000396000f3fe6080604052600436106100225760003560e01c80636f9170f61461019c57610197565b3661019757610030336101d9565b15610070576040517f08c379a00000000000000000000000000000000000000000000000000000000081526004016100679061028c565b60405180910390fd5b60008060009054906101000a900473ffffffffffffffffffffffffffffffffffffffff1673ffffffffffffffffffffffffffffffffffffffff16346040516100b7906102dd565b60006040518083038185875af1925050503d80600081146100f4576040519150601f19603f3d011682016040523d82523d6000602084013e6100f9565b606091505b505090508061013d576040517f08c379a00000000000000000000000000000000000000000000000000000000081526004016101349061033e565b60405180910390fd5b60018060003373ffffffffffffffffffffffffffffffffffffffff1673ffffffffffffffffffffffffffffffffffffffff16815260200190815260200160002060006101000a81548160ff02191690831515021790555050005b600080fd5b3480156101a857600080fd5b506101c360048036038101906101be91906103c1565b6101d9565b6040516101d09190610409565b60405180910390f35b6000600160008373ffffffffffffffffffffffffffffffffffffffff1673ffffffffffffffffffffffffffffffffffffffff16815260200190815260200160002060009054906101000a900460ff169050919050565b600082825260208201905092915050565b7f557365722068617320616c726561647920506169642100000000000000000000600082015250565b600061027660168361022f565b915061028182610240565b602082019050919050565b600060208201905081810360008301526102a581610269565b9050919050565b600081905092915050565b50565b60006102c76000836102ac565b91506102d2826102b7565b600082019050919050565b60006102e8826102ba565b9150819050919050565b7f4661696c656420746f2073656e64206d6f6e6579000000000000000000000000600082015250565b600061032860148361022f565b9150610333826102f2565b602082019050919050565b600060208201905081810360008301526103578161031b565b9050919050565b600080fd5b600073ffffffffffffffffffffffffffffffffffffffff82169050919050565b600061038e82610363565b9050919050565b61039e81610383565b81146103a957600080fd5b50565b6000813590506103bb81610395565b92915050565b6000602082840312156103d7576103d661035e565b5b60006103e5848285016103ac565b91505092915050565b60008115159050919050565b610403816103ee565b82525050565b600060208201905061041e60008301846103fa565b9291505056fea2646970667358221220e26da272aa46e8b1f72d88ea2b765815e23a4212d8190739d5d70d1dfbb9dde764736f6c634300080b0033",
  "immutableReferences": {},
  "source": "// SPDX-License-Identifier: MIT\r\n\r\npragma solidity ^0.8.11;\r\n\r\ncontract ButtonReceiver { \r\n    address payable owner; // contract creator's address\r\n    mapping (address => bool) internal whitelist; // whitelisted users (users who have paid)\r\n\r\n    //contract settings\r\n    constructor() {\r\n        owner = payable(msg.sender); // setting the contract creator\r\n    }\r\n\r\n    // receive money\r\n    receive() payable external {\r\n        require(!isWhiteListed(msg.sender), \"User has already Paid!\");\r\n        (bool success,) = owner.call {value: msg.value}(\"\");\r\n        require(success, \"Failed to send money\");\r\n        whitelist[msg.sender] = true;\r\n    }\r\n\r\n    function isWhiteListed(address _addr) public view returns (bool) {\r\n        return whitelist[_addr];\r\n    }\r\n\r\n} ",
  "sourcePath": "C:\\Users\\aroni\\OneDrive\\Desktop\\Coding\\Solidity\\EthereumButtons\\contracts\\ButtonReceiver.sol",
  "compiler": {
    "name": "solc",
    "version": "0.8.11+commit.d7f03943.Emscripten.clang"
  },
  "schemaVersion": "3.4.4",
  "updatedAt": "2022-02-01T22:48:02.524Z",
  "devdoc": {
    "kind": "dev",
    "methods": {},
    "version": 1
  },
  "userdoc": {
    "kind": "user",
    "methods": {},
    "version": 1
  }
}